{
  "contractName": "FirstContract",
  "abi": [
    {
      "inputs": [],
      "name": "owner",
      "outputs": [
        {
          "internalType": "address",
          "name": "",
          "type": "address"
        }
      ],
      "stateMutability": "view",
      "type": "function",
      "constant": true
    },
    {
      "inputs": [],
      "name": "logEvent",
      "outputs": [
        {
          "internalType": "bytes32",
          "name": "",
          "type": "bytes32"
        }
      ],
      "stateMutability": "pure",
      "type": "function",
      "constant": true
    },
    {
      "inputs": [
        {
          "internalType": "address",
          "name": "newOwner",
          "type": "address"
        }
      ],
      "name": "transferOwnership",
      "outputs": [
        {
          "internalType": "address",
          "name": "",
          "type": "address"
        }
      ],
      "stateMutability": "payable",
      "type": "function",
      "payable": true
    },
    {
      "inputs": [],
      "name": "storeAddress",
      "outputs": [],
      "stateMutability": "payable",
      "type": "function",
      "payable": true
    },
    {
      "inputs": [],
      "name": "getAddresses",
      "outputs": [
        {
          "internalType": "address[]",
          "name": "",
          "type": "address[]"
        }
      ],
      "stateMutability": "view",
      "type": "function",
      "constant": true
    },
    {
      "inputs": [
        {
          "internalType": "uint256",
          "name": "amount",
          "type": "uint256"
        }
      ],
      "name": "withdrawFunds",
      "outputs": [],
      "stateMutability": "nonpayable",
      "type": "function"
    }
  ],
  "bytecode": "0x608060405234801561001057600080fd5b50336000806101000a81548173ffffffffffffffffffffffffffffffffffffffff021916908373ffffffffffffffffffffffffffffffffffffffff160217905550610ad7806100606000396000f3fe6080604052600436106100555760003560e01c8063155dd5ee1461005a5780638da5cb5b14610083578063a39fac12146100ae578063a5fe0872146100d9578063f2c4da9314610104578063f2fde38b1461010e575b600080fd5b34801561006657600080fd5b50610081600480360381019061007c91906105ef565b61013e565b005b34801561008f57600080fd5b506100986101d5565b6040516100a5919061065d565b60405180910390f35b3480156100ba57600080fd5b506100c36101f9565b6040516100d09190610736565b60405180910390f35b3480156100e557600080fd5b506100ee6102f3565b6040516100fb9190610771565b60405180910390f35b61010c61031b565b005b610128600480360381019061012391906107b8565b61046e565b604051610135919061065d565b60405180910390f35b80670de0b6b3a764000081111561018a576040517f08c379a000000000000000000000000000000000000000000000000000000000815260040161018190610842565b60405180910390fd5b3373ffffffffffffffffffffffffffffffffffffffff166108fc839081150290604051600060405180830381858888f193505050501580156101d0573d6000803e3d6000fd5b505050565b60008054906101000a900473ffffffffffffffffffffffffffffffffffffffff1681565b6060600060015467ffffffffffffffff81111561021957610218610862565b5b6040519080825280602002602001820160405280156102475781602001602082028036833780820191505090505b50905060005b6001548110156102eb576003600082815260200190815260200160002060009054906101000a900473ffffffffffffffffffffffffffffffffffffffff1682828151811061029e5761029d610891565b5b602002602001019073ffffffffffffffffffffffffffffffffffffffff16908173ffffffffffffffffffffffffffffffffffffffff168152505080806102e3906108ef565b91505061024d565b508091505090565b60007f48656c6c6f20576f726c64000000000000000000000000000000000000000000905090565b600260003373ffffffffffffffffffffffffffffffffffffffff1673ffffffffffffffffffffffffffffffffffffffff16815260200190815260200160002060009054906101000a900460ff16156103a8576040517f08c379a000000000000000000000000000000000000000000000000000000000815260040161039f90610983565b60405180910390fd5b6001600260003373ffffffffffffffffffffffffffffffffffffffff1673ffffffffffffffffffffffffffffffffffffffff16815260200190815260200160002060006101000a81548160ff0219169083151502179055503360036000600154815260200190815260200160002060006101000a81548173ffffffffffffffffffffffffffffffffffffffff021916908373ffffffffffffffffffffffffffffffffffffffff16021790555060016000815480929190610467906108ef565b9190505550565b60003373ffffffffffffffffffffffffffffffffffffffff1660008054906101000a900473ffffffffffffffffffffffffffffffffffffffff1673ffffffffffffffffffffffffffffffffffffffff16146104fe576040517f08c379a00000000000000000000000000000000000000000000000000000000081526004016104f5906109ef565b60405180910390fd5b8173ffffffffffffffffffffffffffffffffffffffff163373ffffffffffffffffffffffffffffffffffffffff160361056c576040517f08c379a000000000000000000000000000000000000000000000000000000000815260040161056390610a81565b60405180910390fd5b816000806101000a81548173ffffffffffffffffffffffffffffffffffffffff021916908373ffffffffffffffffffffffffffffffffffffffff160217905550819050919050565b600080fd5b6000819050919050565b6105cc816105b9565b81146105d757600080fd5b50565b6000813590506105e9816105c3565b92915050565b600060208284031215610605576106046105b4565b5b6000610613848285016105da565b91505092915050565b600073ffffffffffffffffffffffffffffffffffffffff82169050919050565b60006106478261061c565b9050919050565b6106578161063c565b82525050565b6000602082019050610672600083018461064e565b92915050565b600081519050919050565b600082825260208201905092915050565b6000819050602082019050919050565b6106ad8161063c565b82525050565b60006106bf83836106a4565b60208301905092915050565b6000602082019050919050565b60006106e382610678565b6106ed8185610683565b93506106f883610694565b8060005b8381101561072957815161071088826106b3565b975061071b836106cb565b9250506001810190506106fc565b5085935050505092915050565b6000602082019050818103600083015261075081846106d8565b905092915050565b6000819050919050565b61076b81610758565b82525050565b60006020820190506107866000830184610762565b92915050565b6107958161063c565b81146107a057600080fd5b50565b6000813590506107b28161078c565b92915050565b6000602082840312156107ce576107cd6105b4565b5b60006107dc848285016107a3565b91505092915050565b600082825260208201905092915050565b7f43616e6e6f74207769746864726177206d6f7265207468616e20316574682e00600082015250565b600061082c601f836107e5565b9150610837826107f6565b602082019050919050565b6000602082019050818103600083015261085b8161081f565b9050919050565b7f4e487b7100000000000000000000000000000000000000000000000000000000600052604160045260246000fd5b7f4e487b7100000000000000000000000000000000000000000000000000000000600052603260045260246000fd5b7f4e487b7100000000000000000000000000000000000000000000000000000000600052601160045260246000fd5b60006108fa826105b9565b91507fffffffffffffffffffffffffffffffffffffffffffffffffffffffffffffffff820361092c5761092b6108c0565b5b600182019050919050565b7f4164647265737320616c72656164792065786973747300000000000000000000600082015250565b600061096d6016836107e5565b915061097882610937565b602082019050919050565b6000602082019050818103600083015261099c81610960565b9050919050565b7f5065726d697373696f6e2064656e6965642e0000000000000000000000000000600082015250565b60006109d96012836107e5565b91506109e4826109a3565b602082019050919050565b60006020820190508181036000830152610a08816109cc565b9050919050565b7f546865206e6577206f776e657220737570706c6965642069732074686520637560008201527f7272656e74206f776e65722e0000000000000000000000000000000000000000602082015250565b6000610a6b602c836107e5565b9150610a7682610a0f565b604082019050919050565b60006020820190508181036000830152610a9a81610a5e565b905091905056fea26469706673582212206c5315c029220fc27f7e7e4aba5e6bcced913bc4289843487ea9214644bfa6cd64736f6c634300080e0033",
  "immutableReferences": {},
  "source": "// SPDX-License-Identifier: MIT\npragma solidity ^0.8.14;\n\nimport \"./Owner.sol\";\nimport \"./Logger.sol\";\nimport \"./IFirstContract.sol\";\n\ncontract FirstContract is Owner, Logger, IFirstContract {\n    uint256 private index;\n    mapping(address => bool) private addresses;\n    mapping(uint256 => address) private adressIndexLookup;\n\n    modifier limitWithdraw(uint256 withdrawAmount) {\n        require(withdrawAmount <= 1e18, \"Cannot withdraw more than 1eth.\");\n        _;\n    }\n\n    function logEvent() public pure override returns (bytes32) {\n        return \"Hello World\";\n    }\n\n    function transferOwnership(address newOwner)\n        external\n        payable\n        onlyOwner\n        returns (address)\n    {\n        require(\n            msg.sender != newOwner,\n            \"The new owner supplied is the current owner.\"\n        );\n        owner = newOwner;\n        return newOwner;\n    }\n\n    function storeAddress() external payable {\n        require(!addresses[msg.sender], \"Address already exists\");\n        addresses[msg.sender] = true;\n        adressIndexLookup[index] = msg.sender;\n        index++;\n    }\n\n    function getAddresses() external view returns (address[] memory) {\n        address[] memory _addresses = new address[](index);\n\n        for (uint256 i = 0; i < index; i++) {\n            _addresses[i] = adressIndexLookup[i];\n        }\n        return _addresses;\n    }\n\n    function withdrawFunds(uint256 amount) external limitWithdraw(amount) {\n        // require(amount <= 1e18, \"Cannot withdraw more than 1eth.\");\n        payable(msg.sender).transfer(amount);\n    }\n\n    // function pr() private override returns (uint256) {\n    //     return 2 + 2;\n    // }\n}\n",
  "sourcePath": "/home/niraj/Documents/solidity-etherium/smart_contract/contracts/FirstContract.sol",
  "compiler": {
    "name": "solc",
    "version": "0.8.14+commit.80d49f37.Emscripten.clang"
  },
  "schemaVersion": "3.4.7",
  "updatedAt": "2022-06-18T20:14:38.330Z",
  "networkType": "ethereum",
  "devdoc": {
    "kind": "dev",
    "methods": {},
    "version": 1
  },
  "userdoc": {
    "kind": "user",
    "methods": {},
    "version": 1
  }
}